S00E00004441344254322E7372656395
S11300000C9434000C943E000C943E000C943E007E
S11300100C943E000C943E000C943E000C943E0064
S11300200C943E000C943E000C943E000C943E0054
S11300300C943E000C943E000C943E000C943E0044
S11300400C943E000C943E000C943E000C943E0034
S11300500C943E000C943E000C943E000C943E0024
S11300600C943E000C943E0011241FBECFEFD8E048
S1130070DEBFCDBF0E9452000C9477000C940000A8
S113008082EA809380008BE180938100089580E46C
S113009080937C00EAE7F0E08081876C8083109293
S11300A07B0008950E9440000E9447000F2EF6E84E
S11300B0CF2ED12CF02DEE24EA94FE2C08E710E08C
S11300C0C8E8D0E00E944700F601F182E082219A5C
S11300D0F8018081918199838883FFEF26E781E08D
S11300E0F15020408040E1F700C00000EBCFF894CD
S10500F0FFCF3C
S9030000FC
