:100000000C9434000C9446000C9446000C9446006A
:100010000C9478000C9446000C9446000C94460016
:100020000C9446000C9446000C9446000C94460038
:100030000C9446000C9446000C9446000C94460028
:100040000C9446000C9446000C9446000C94460018
:100050000C9446000C9446000C9446000C94460008
:100060000C9446000C94460011241FBECFEFD8E03C
:10007000DEBFCDBF21E0A0E0B1E001C01D92A33002
:10008000B207E1F70E9448000C9409020C940000AA
:1000900014B8219A17B8419AECE7F0E080818064A7
:1000A0008083EAE7F0E08081806C808380818760D4
:1000B000808310927B00E0E8F0E08081806A80839A
:1000C000808182608083E1E8F0E0808188618083C4
:1000D00080818260808382E08093680080936C00DE
:1000E000789488E893E19093870080938600FFCF0F
:1000F0001F920F920FB60F9211242F933F934F939D
:100100005F936F937F938F939F93AF93BF93EF937F
:10011000FF93319943C02FEF31EE84E021503040FE
:100120008040E1F700C00000319BFECF80910001CC
:10013000882349F1299AEAE7F0E0808184FFFDCF26
:10014000809179002091780090E030EC239F800D21
:10015000911D11249093020180930101609101018E
:100160007091020180E090E00E940E0123E333E3EE
:1001700043E75FE30E9474010E94DF0070938900EF
:100180006093880005C02998109289001092880019
:100190009091000181E0892780930001FF91EF9108
:1001A000BF91AF919F918F917F916F915F914F918F
:1001B0003F912F910F900FBE0F901F9018950E94A6
:1001C000530188F09F5798F0B92F9927B751B0F095
:1001D000E1F0660F771F881F991F1AF0BA95C9F7CB
:1001E00014C0B13091F00E946D01B1E008950C94FB
:1001F0006D01672F782F8827B85F39F0B93FCCF3AE
:10020000869577956795B395D9F73EF49095809547
:10021000709561957F4F8F4F9F4F0895E89409C067
:1002200097FB3EF490958095709561957F4F8F4F29
:100230009F4F9923A9F0F92F96E9BB279395F6953F
:10024000879577956795B795F111F8CFFAF4BB0FBD
:1002500011F460FF1BC06F5F7F4F8F4F9F4F16C021
:10026000882311F096E911C0772321F09EE8872FAB
:10027000762F05C0662371F096E8862F70E060E067
:100280002AF09A95660F771F881FDAF7880F9695E0
:10029000879597F9089557FD9058440F551F59F0C9
:1002A0005F3F71F04795880F97FB991F61F09F3F63
:1002B00079F087950895121613061406551FF2CF8C
:1002C0004695F1DF08C0161617061806991FF1CFDC
:1002D00086957105610508940895E894BB27662703
:1002E0007727CB0197F908950E9487010C94F801B4
:1002F0000E94EA0138F00E94F10120F0952311F0EC
:100300000C94E1010C94E70111240C946E010E94FD
:100310004B0170F3959FC1F3950F50E0551F629FFD
:10032000F001729FBB27F00DB11D639FAA27F00D4E
:10033000B11DAA1F649F6627B00DA11D661F829F75
:100340002227B00DA11D621F739FB00DA11D621F5A
:10035000839FA00D611D221F749F3327A00D611D77
:10036000231F849F600D211D822F762F6A2F112459
:100370009F5750409AF0F1F088234AF0EE0FFF1F8C
:10038000BB1F661F771F881F91505040A9F79E3FE3
:10039000510580F00C94E1010C946E015F3FE4F391
:1003A000983ED4F3869577956795B795F795E79539
:1003B0009F5FC1F7FE2B880F911D9695879597F942
:1003C000089597F99F6780E870E060E008959FEFD7
:1003D00080EC089500240A941616170618060906DC
:1003E000089500240A9412161306140605060895AB
:1003F000092E0394000C11F4882352F0BB0F40F433
:10040000BF2B11F460FF04C06F5F7F4F8F4F9F4F72
:060410000895F894FFCFEF
:00000001FF
