S01400004441324354325F4156525F432E73726563A6
S11300000C9434000C943E000C943E000C943E007E
S11300100C943E000C943E000C943E000C943E0064
S11300200C943E000C943E000C943E000C943E0054
S11300300C943E000C943E000C943E000C943E0044
S11300400C944E000C943E000C943E000C943E0024
S11300500C943E000C943E000C943E000C943E0024
S11300600C943E000C943E0011241FBECFEFD8E048
S1130070DEBFCDBF0E9440000C9477000C940000BA
S113008084B1846284B92D9AEEE6F0E080818160C7
S11300908083789485B5856085BDFFCF1F920F92CC
S11300A00FB60F9211242F938F939F932A9B0AC00C
S11300B02FEF88E29EE0215080409040E1F700C09D
S11300C0000009C02FE78DE395E121508040904066
S11300D0E1F700C0000095B184E0892785B99F91BC
S11300E08F912F910F900FBE0F901F901895F89439
S10500F0FFCF3C
S9030000FC
