S00E00004441344254312E7372656396
S11300000C9434000C9446000C9446000C94460066
S11300100C9446000C9446000C9446000C94460044
S11300200C9446000C9446000C9446000C94460034
S11300300C9446000C9446000C9446000C94460024
S11300400C9446000C9446000C9446000C94460014
S11300500C9446000C9446000C9446000C94460004
S11300600C9446000C94460011241FBECFEFD8E038
S1130070DEBFCDBF21E0A0E0B1E001C01D92A230FF
S1130080B207E1F70E944C000C94A9000C94000004
S1130090B19BFECFB19A089584B18F6084B917B82B
S11300A08AE08093810081E080937E0080E48093E5
S11300B07C00EAE7F0E0808184688083808183604B
S11300C0808380818064808310927B00CAE7D0E0C3
S11300D00F2EF8E7EF2EF12CF02D08E810E00F2E8C
S11300E0F9E0AF2EF02D0F2EF3E0BF2EF02D0F2EE2
S11300F0F6E0CF2EF02D0F2EFCE0DF2EF02D8881C0
S113010084FFFDCFF7018081918193709093010169
S11301108093000180910001909101019C01220FC4
S1130120331F880F991F880F991F880F991F820FFB
S1130130931FF80191838083A5B80E944800B5B845
S11301400E944800C5B80E944800D5B80E944800E3
S1090150D6CFF894FFCFA6
S9030000FC
