:100000000C9434000C943E000C943E000C943E0082
:100010000C943E000C943E000C943E000C943E0068
:100020000C943E000C943E000C943E000C943E0058
:100030000C943E000C943E000C9452000C943E0034
:100040000C943E000C943E000C943E000C943E0038
:100050000C943E000C943E000C943E000C943E0028
:100060000C943E000C943E0011241FBECFEFD8E04C
:10007000DEBFCDBF0E9440000C947B000C940000BA
:1000800084B1846284B92D9A17BC84B5826084BD22
:10009000EEE6F0E080818260808385B5856085BD75
:1000A0007894FFCF1F920F920FB60F9211242F93C7
:1000B0008F939F932A9B0AC02FEF88E29EE02150E6
:1000C00080409040E1F700C0000009C02FE78DE3B9
:1000D00095E1215080409040E1F700C0000095B1CB
:1000E00084E0892785B99F918F912F910F900FBE42
:0A00F0000F901F901895F894FFCFB1
:00000001FF
